{
  "contractName": "Custom_NFT",
  "abi": [
    {
      "inputs": [],
      "stateMutability": "nonpayable",
      "type": "constructor"
    },
    {
      "anonymous": false,
      "inputs": [
        {
          "indexed": true,
          "internalType": "address",
          "name": "owner",
          "type": "address"
        },
        {
          "indexed": true,
          "internalType": "address",
          "name": "approved",
          "type": "address"
        },
        {
          "indexed": true,
          "internalType": "uint256",
          "name": "tokenId",
          "type": "uint256"
        }
      ],
      "name": "Approval",
      "type": "event"
    },
    {
      "anonymous": false,
      "inputs": [
        {
          "indexed": true,
          "internalType": "address",
          "name": "owner",
          "type": "address"
        },
        {
          "indexed": true,
          "internalType": "address",
          "name": "operator",
          "type": "address"
        },
        {
          "indexed": false,
          "internalType": "bool",
          "name": "approved",
          "type": "bool"
        }
      ],
      "name": "ApprovalForAll",
      "type": "event"
    },
    {
      "anonymous": false,
      "inputs": [
        {
          "indexed": true,
          "internalType": "address",
          "name": "from",
          "type": "address"
        },
        {
          "indexed": true,
          "internalType": "address",
          "name": "to",
          "type": "address"
        },
        {
          "indexed": true,
          "internalType": "uint256",
          "name": "tokenId",
          "type": "uint256"
        }
      ],
      "name": "Transfer",
      "type": "event"
    },
    {
      "inputs": [
        {
          "internalType": "address",
          "name": "to",
          "type": "address"
        },
        {
          "internalType": "uint256",
          "name": "tokenId",
          "type": "uint256"
        }
      ],
      "name": "approve",
      "outputs": [],
      "stateMutability": "nonpayable",
      "type": "function"
    },
    {
      "inputs": [
        {
          "internalType": "address",
          "name": "owner",
          "type": "address"
        }
      ],
      "name": "balanceOf",
      "outputs": [
        {
          "internalType": "uint256",
          "name": "",
          "type": "uint256"
        }
      ],
      "stateMutability": "view",
      "type": "function"
    },
    {
      "inputs": [],
      "name": "counter",
      "outputs": [
        {
          "internalType": "uint256",
          "name": "",
          "type": "uint256"
        }
      ],
      "stateMutability": "view",
      "type": "function"
    },
    {
      "inputs": [
        {
          "internalType": "uint256",
          "name": "tokenId",
          "type": "uint256"
        }
      ],
      "name": "getApproved",
      "outputs": [
        {
          "internalType": "address",
          "name": "",
          "type": "address"
        }
      ],
      "stateMutability": "view",
      "type": "function"
    },
    {
      "inputs": [
        {
          "internalType": "address",
          "name": "owner",
          "type": "address"
        },
        {
          "internalType": "address",
          "name": "operator",
          "type": "address"
        }
      ],
      "name": "isApprovedForAll",
      "outputs": [
        {
          "internalType": "bool",
          "name": "",
          "type": "bool"
        }
      ],
      "stateMutability": "view",
      "type": "function"
    },
    {
      "inputs": [],
      "name": "name",
      "outputs": [
        {
          "internalType": "string",
          "name": "",
          "type": "string"
        }
      ],
      "stateMutability": "view",
      "type": "function"
    },
    {
      "inputs": [
        {
          "internalType": "uint256",
          "name": "tokenId",
          "type": "uint256"
        }
      ],
      "name": "ownerOf",
      "outputs": [
        {
          "internalType": "address",
          "name": "",
          "type": "address"
        }
      ],
      "stateMutability": "view",
      "type": "function"
    },
    {
      "inputs": [
        {
          "internalType": "address",
          "name": "from",
          "type": "address"
        },
        {
          "internalType": "address",
          "name": "to",
          "type": "address"
        },
        {
          "internalType": "uint256",
          "name": "tokenId",
          "type": "uint256"
        }
      ],
      "name": "safeTransferFrom",
      "outputs": [],
      "stateMutability": "nonpayable",
      "type": "function"
    },
    {
      "inputs": [
        {
          "internalType": "address",
          "name": "from",
          "type": "address"
        },
        {
          "internalType": "address",
          "name": "to",
          "type": "address"
        },
        {
          "internalType": "uint256",
          "name": "tokenId",
          "type": "uint256"
        },
        {
          "internalType": "bytes",
          "name": "_data",
          "type": "bytes"
        }
      ],
      "name": "safeTransferFrom",
      "outputs": [],
      "stateMutability": "nonpayable",
      "type": "function"
    },
    {
      "inputs": [
        {
          "internalType": "address",
          "name": "operator",
          "type": "address"
        },
        {
          "internalType": "bool",
          "name": "approved",
          "type": "bool"
        }
      ],
      "name": "setApprovalForAll",
      "outputs": [],
      "stateMutability": "nonpayable",
      "type": "function"
    },
    {
      "inputs": [
        {
          "internalType": "bytes4",
          "name": "interfaceId",
          "type": "bytes4"
        }
      ],
      "name": "supportsInterface",
      "outputs": [
        {
          "internalType": "bool",
          "name": "",
          "type": "bool"
        }
      ],
      "stateMutability": "view",
      "type": "function"
    },
    {
      "inputs": [],
      "name": "symbol",
      "outputs": [
        {
          "internalType": "string",
          "name": "",
          "type": "string"
        }
      ],
      "stateMutability": "view",
      "type": "function"
    },
    {
      "inputs": [
        {
          "internalType": "uint256",
          "name": "tokenId",
          "type": "uint256"
        }
      ],
      "name": "tokenURI",
      "outputs": [
        {
          "internalType": "string",
          "name": "",
          "type": "string"
        }
      ],
      "stateMutability": "view",
      "type": "function"
    },
    {
      "inputs": [
        {
          "internalType": "address",
          "name": "from",
          "type": "address"
        },
        {
          "internalType": "address",
          "name": "to",
          "type": "address"
        },
        {
          "internalType": "uint256",
          "name": "tokenId",
          "type": "uint256"
        }
      ],
      "name": "transferFrom",
      "outputs": [],
      "stateMutability": "nonpayable",
      "type": "function"
    },
    {
      "inputs": [
        {
          "internalType": "string",
          "name": "tokenURI",
          "type": "string"
        }
      ],
      "name": "createNFT",
      "outputs": [
        {
          "internalType": "uint256",
          "name": "tokenId",
          "type": "uint256"
        }
      ],
      "stateMutability": "nonpayable",
      "type": "function"
    },
    {
      "inputs": [
        {
          "internalType": "uint256",
          "name": "tokenId",
          "type": "uint256"
        }
      ],
      "name": "burnNFT",
      "outputs": [],
      "stateMutability": "nonpayable",
      "type": "function"
    }
  ],
  "bytecode": "0x60806040523480156200001157600080fd5b506040518060400160405280600a81526020017f437573746f6d5f4e4654000000000000000000000000000000000000000000008152506040518060400160405280600481526020017f434e465400000000000000000000000000000000000000000000000000000000815250816000908051906020019062000096929190620000b8565b508060019080519060200190620000af929190620000b8565b505050620001cd565b828054620000c69062000197565b90600052602060002090601f016020900481019282620000ea576000855562000136565b82601f106200010557805160ff191683800117855562000136565b8280016001018555821562000136579182015b828111156200013557825182559160200191906001019062000118565b5b50905062000145919062000149565b5090565b5b80821115620001645760008160009055506001016200014a565b5090565b7f4e487b7100000000000000000000000000000000000000000000000000000000600052602260045260246000fd5b60006002820490506001821680620001b057607f821691505b60208210811415620001c757620001c662000168565b5b50919050565b612ecb80620001dd6000396000f3fe608060405234801561001057600080fd5b50600436106101005760003560e01c80636352211e11610097578063b88d4fde11610066578063b88d4fde146102ab578063c87b56dd146102c7578063da2ed03e146102f7578063e985e9c51461032757610100565b80636352211e1461021157806370a082311461024157806395d89b4114610271578063a22cb4651461028f57610100565b806323b872dd116100d357806323b872dd1461019f5780632890e0d7146101bb57806342842e0e146101d757806361bc221a146101f357610100565b806301ffc9a71461010557806306fdde0314610135578063081812fc14610153578063095ea7b314610183575b600080fd5b61011f600480360381019061011a9190611bd4565b610357565b60405161012c9190611c1c565b60405180910390f35b61013d610439565b60405161014a9190611cd0565b60405180910390f35b61016d60048036038101906101689190611d28565b6104cb565b60405161017a9190611d96565b60405180910390f35b61019d60048036038101906101989190611ddd565b610550565b005b6101b960048036038101906101b49190611e1d565b610668565b005b6101d560048036038101906101d09190611d28565b6106c8565b005b6101f160048036038101906101ec9190611e1d565b61071d565b005b6101fb61073d565b6040516102089190611e7f565b60405180910390f35b61022b60048036038101906102269190611d28565b610743565b6040516102389190611d96565b60405180910390f35b61025b60048036038101906102569190611e9a565b6107f5565b6040516102689190611e7f565b60405180910390f35b6102796108ad565b6040516102869190611cd0565b60405180910390f35b6102a960048036038101906102a49190611ef3565b61093f565b005b6102c560048036038101906102c09190612068565b610955565b005b6102e160048036038101906102dc9190611d28565b6109b7565b6040516102ee9190611cd0565b60405180910390f35b610311600480360381019061030c919061218c565b610b09565b60405161031e9190611e7f565b60405180910390f35b610341600480360381019061033c91906121d5565b610b41565b60405161034e9190611c1c565b60405180910390f35b60007f80ac58cd000000000000000000000000000000000000000000000000000000007bffffffffffffffffffffffffffffffffffffffffffffffffffffffff1916827bffffffffffffffffffffffffffffffffffffffffffffffffffffffff1916148061042257507f5b5e139f000000000000000000000000000000000000000000000000000000007bffffffffffffffffffffffffffffffffffffffffffffffffffffffff1916827bffffffffffffffffffffffffffffffffffffffffffffffffffffffff1916145b80610432575061043182610bd5565b5b9050919050565b60606000805461044890612244565b80601f016020809104026020016040519081016040528092919081815260200182805461047490612244565b80156104c15780601f10610496576101008083540402835291602001916104c1565b820191906000526020600020905b8154815290600101906020018083116104a457829003601f168201915b5050505050905090565b60006104d682610c3f565b610515576040517f08c379a000000000000000000000000000000000000000000000000000000000815260040161050c906122e8565b60405180910390fd5b6004600083815260200190815260200160002060009054906101000a900473ffffffffffffffffffffffffffffffffffffffff169050919050565b600061055b82610743565b90508073ffffffffffffffffffffffffffffffffffffffff168373ffffffffffffffffffffffffffffffffffffffff1614156105cc576040517f08c379a00000000000000000000000000000000000000000000000000000000081526004016105c39061237a565b60405180910390fd5b8073ffffffffffffffffffffffffffffffffffffffff166105eb610cab565b73ffffffffffffffffffffffffffffffffffffffff16148061061a575061061981610614610cab565b610b41565b5b610659576040517f08c379a00000000000000000000000000000000000000000000000000000000081526004016106509061240c565b60405180910390fd5b6106638383610cb3565b505050565b610679610673610cab565b82610d6c565b6106b8576040517f08c379a00000000000000000000000000000000000000000000000000000000081526004016106af9061249e565b60405180910390fd5b6106c3838383610e4a565b505050565b6106d23382610d6c565b610711576040517f08c379a00000000000000000000000000000000000000000000000000000000081526004016107089061250a565b60405180910390fd5b61071a816110b1565b50565b61073883838360405180602001604052806000815250610955565b505050565b60075481565b6000806002600084815260200190815260200160002060009054906101000a900473ffffffffffffffffffffffffffffffffffffffff169050600073ffffffffffffffffffffffffffffffffffffffff168173ffffffffffffffffffffffffffffffffffffffff1614156107ec576040517f08c379a00000000000000000000000000000000000000000000000000000000081526004016107e39061259c565b60405180910390fd5b80915050919050565b60008073ffffffffffffffffffffffffffffffffffffffff168273ffffffffffffffffffffffffffffffffffffffff161415610866576040517f08c379a000000000000000000000000000000000000000000000000000000000815260040161085d9061262e565b60405180910390fd5b600360008373ffffffffffffffffffffffffffffffffffffffff1673ffffffffffffffffffffffffffffffffffffffff168152602001908152602001600020549050919050565b6060600180546108bc90612244565b80601f01602080910402602001604051908101604052809291908181526020018280546108e890612244565b80156109355780601f1061090a57610100808354040283529160200191610935565b820191906000526020600020905b81548152906001019060200180831161091857829003601f168201915b5050505050905090565b61095161094a610cab565b8383611104565b5050565b610966610960610cab565b83610d6c565b6109a5576040517f08c379a000000000000000000000000000000000000000000000000000000000815260040161099c9061249e565b60405180910390fd5b6109b184848484611271565b50505050565b60606109c282610c3f565b610a01576040517f08c379a00000000000000000000000000000000000000000000000000000000081526004016109f8906126c0565b60405180910390fd5b6000600660008481526020019081526020016000208054610a2190612244565b80601f0160208091040260200160405190810160405280929190818152602001828054610a4d90612244565b8015610a9a5780601f10610a6f57610100808354040283529160200191610a9a565b820191906000526020600020905b815481529060010190602001808311610a7d57829003601f168201915b505050505090506000610aab6112cd565b9050600081511415610ac1578192505050610b04565b600082511115610af6578082604051602001610ade92919061271c565b60405160208183030381529060405292505050610b04565b610aff846112e4565b925050505b919050565b60006007549050610b1a338261138b565b610b2481836113a9565b60076000815480929190610b379061276f565b9190505550919050565b6000600560008473ffffffffffffffffffffffffffffffffffffffff1673ffffffffffffffffffffffffffffffffffffffff16815260200190815260200160002060008373ffffffffffffffffffffffffffffffffffffffff1673ffffffffffffffffffffffffffffffffffffffff16815260200190815260200160002060009054906101000a900460ff16905092915050565b60007f01ffc9a7000000000000000000000000000000000000000000000000000000007bffffffffffffffffffffffffffffffffffffffffffffffffffffffff1916827bffffffffffffffffffffffffffffffffffffffffffffffffffffffff1916149050919050565b60008073ffffffffffffffffffffffffffffffffffffffff166002600084815260200190815260200160002060009054906101000a900473ffffffffffffffffffffffffffffffffffffffff1673ffffffffffffffffffffffffffffffffffffffff1614159050919050565b600033905090565b816004600083815260200190815260200160002060006101000a81548173ffffffffffffffffffffffffffffffffffffffff021916908373ffffffffffffffffffffffffffffffffffffffff160217905550808273ffffffffffffffffffffffffffffffffffffffff16610d2683610743565b73ffffffffffffffffffffffffffffffffffffffff167f8c5be1e5ebec7d5bd14f71427d1e84f3dd0314c0f7b2291e5b200ac8c7c3b92560405160405180910390a45050565b6000610d7782610c3f565b610db6576040517f08c379a0000000000000000000000000000000000000000000000000000000008152600401610dad9061282a565b60405180910390fd5b6000610dc183610743565b90508073ffffffffffffffffffffffffffffffffffffffff168473ffffffffffffffffffffffffffffffffffffffff161480610e3057508373ffffffffffffffffffffffffffffffffffffffff16610e18846104cb565b73ffffffffffffffffffffffffffffffffffffffff16145b80610e415750610e408185610b41565b5b91505092915050565b8273ffffffffffffffffffffffffffffffffffffffff16610e6a82610743565b73ffffffffffffffffffffffffffffffffffffffff1614610ec0576040517f08c379a0000000000000000000000000000000000000000000000000000000008152600401610eb7906128bc565b60405180910390fd5b600073ffffffffffffffffffffffffffffffffffffffff168273ffffffffffffffffffffffffffffffffffffffff161415610f30576040517f08c379a0000000000000000000000000000000000000000000000000000000008152600401610f279061294e565b60405180910390fd5b610f3b83838361141d565b610f46600082610cb3565b6001600360008573ffffffffffffffffffffffffffffffffffffffff1673ffffffffffffffffffffffffffffffffffffffff1681526020019081526020016000206000828254610f96919061296e565b925050819055506001600360008473ffffffffffffffffffffffffffffffffffffffff1673ffffffffffffffffffffffffffffffffffffffff1681526020019081526020016000206000828254610fed91906129a2565b92505081905550816002600083815260200190815260200160002060006101000a81548173ffffffffffffffffffffffffffffffffffffffff021916908373ffffffffffffffffffffffffffffffffffffffff160217905550808273ffffffffffffffffffffffffffffffffffffffff168473ffffffffffffffffffffffffffffffffffffffff167fddf252ad1be2c89b69c2b068fc378daa952ba7f163c4a11628f55a4df523b3ef60405160405180910390a46110ac838383611422565b505050565b6110ba81611427565b60006006600083815260200190815260200160002080546110da90612244565b905014611101576006600082815260200190815260200160002060006111009190611a85565b5b50565b8173ffffffffffffffffffffffffffffffffffffffff168373ffffffffffffffffffffffffffffffffffffffff161415611173576040517f08c379a000000000000000000000000000000000000000000000000000000000815260040161116a90612a44565b60405180910390fd5b80600560008573ffffffffffffffffffffffffffffffffffffffff1673ffffffffffffffffffffffffffffffffffffffff16815260200190815260200160002060008473ffffffffffffffffffffffffffffffffffffffff1673ffffffffffffffffffffffffffffffffffffffff16815260200190815260200160002060006101000a81548160ff0219169083151502179055508173ffffffffffffffffffffffffffffffffffffffff168373ffffffffffffffffffffffffffffffffffffffff167f17307eab39ab6107e8899845ad3d59bd9653f200f220920489ca2b5937696c31836040516112649190611c1c565b60405180910390a3505050565b61127c848484610e4a565b61128884848484611544565b6112c7576040517f08c379a00000000000000000000000000000000000000000000000000000000081526004016112be90612ad6565b60405180910390fd5b50505050565b606060405180602001604052806000815250905090565b60606112ef82610c3f565b61132e576040517f08c379a000000000000000000000000000000000000000000000000000000000815260040161132590612b68565b60405180910390fd5b60006113386112cd565b905060008151116113585760405180602001604052806000815250611383565b80611362846116cc565b60405160200161137392919061271c565b6040516020818303038152906040525b915050919050565b6113a582826040518060200160405280600081525061182d565b5050565b6113b282610c3f565b6113f1576040517f08c379a00000000000000000000000000000000000000000000000000000000081526004016113e890612bfa565b60405180910390fd5b80600660008481526020019081526020016000209080519060200190611418929190611ac5565b505050565b505050565b505050565b600061143282610743565b90506114408160008461141d565b61144b600083610cb3565b6001600360008373ffffffffffffffffffffffffffffffffffffffff1673ffffffffffffffffffffffffffffffffffffffff168152602001908152602001600020600082825461149b919061296e565b925050819055506002600083815260200190815260200160002060006101000a81549073ffffffffffffffffffffffffffffffffffffffff021916905581600073ffffffffffffffffffffffffffffffffffffffff168273ffffffffffffffffffffffffffffffffffffffff167fddf252ad1be2c89b69c2b068fc378daa952ba7f163c4a11628f55a4df523b3ef60405160405180910390a461154081600084611422565b5050565b60006115658473ffffffffffffffffffffffffffffffffffffffff16611888565b156116bf578373ffffffffffffffffffffffffffffffffffffffff1663150b7a0261158e610cab565b8786866040518563ffffffff1660e01b81526004016115b09493929190612c6f565b6020604051808303816000875af19250505080156115ec57506040513d601f19601f820116820180604052508101906115e99190612cd0565b60015b61166f573d806000811461161c576040519150601f19603f3d011682016040523d82523d6000602084013e611621565b606091505b50600081511415611667576040517f08c379a000000000000000000000000000000000000000000000000000000000815260040161165e90612ad6565b60405180910390fd5b805181602001fd5b63150b7a0260e01b7bffffffffffffffffffffffffffffffffffffffffffffffffffffffff1916817bffffffffffffffffffffffffffffffffffffffffffffffffffffffff1916149150506116c4565b600190505b949350505050565b60606000821415611714576040518060400160405280600181526020017f30000000000000000000000000000000000000000000000000000000000000008152509050611828565b600082905060005b6000821461174657808061172f9061276f565b915050600a8261173f9190612d2c565b915061171c565b60008167ffffffffffffffff81111561176257611761611f3d565b5b6040519080825280601f01601f1916602001820160405280156117945781602001600182028036833780820191505090505b5090505b60008514611821576001826117ad919061296e565b9150600a856117bc9190612d5d565b60306117c891906129a2565b60f81b8183815181106117de576117dd612d8e565b5b60200101907effffffffffffffffffffffffffffffffffffffffffffffffffffffffffffff1916908160001a905350600a8561181a9190612d2c565b9450611798565b8093505050505b919050565b61183783836118ab565b6118446000848484611544565b611883576040517f08c379a000000000000000000000000000000000000000000000000000000000815260040161187a90612ad6565b60405180910390fd5b505050565b6000808273ffffffffffffffffffffffffffffffffffffffff163b119050919050565b600073ffffffffffffffffffffffffffffffffffffffff168273ffffffffffffffffffffffffffffffffffffffff16141561191b576040517f08c379a000000000000000000000000000000000000000000000000000000000815260040161191290612e09565b60405180910390fd5b61192481610c3f565b15611964576040517f08c379a000000000000000000000000000000000000000000000000000000000815260040161195b90612e75565b60405180910390fd5b6119706000838361141d565b6001600360008473ffffffffffffffffffffffffffffffffffffffff1673ffffffffffffffffffffffffffffffffffffffff16815260200190815260200160002060008282546119c091906129a2565b92505081905550816002600083815260200190815260200160002060006101000a81548173ffffffffffffffffffffffffffffffffffffffff021916908373ffffffffffffffffffffffffffffffffffffffff160217905550808273ffffffffffffffffffffffffffffffffffffffff16600073ffffffffffffffffffffffffffffffffffffffff167fddf252ad1be2c89b69c2b068fc378daa952ba7f163c4a11628f55a4df523b3ef60405160405180910390a4611a8160008383611422565b5050565b508054611a9190612244565b6000825580601f10611aa35750611ac2565b601f016020900490600052602060002090810190611ac19190611b4b565b5b50565b828054611ad190612244565b90600052602060002090601f016020900481019282611af35760008555611b3a565b82601f10611b0c57805160ff1916838001178555611b3a565b82800160010185558215611b3a579182015b82811115611b39578251825591602001919060010190611b1e565b5b509050611b479190611b4b565b5090565b5b80821115611b64576000816000905550600101611b4c565b5090565b6000604051905090565b600080fd5b600080fd5b60007fffffffff0000000000000000000000000000000000000000000000000000000082169050919050565b611bb181611b7c565b8114611bbc57600080fd5b50565b600081359050611bce81611ba8565b92915050565b600060208284031215611bea57611be9611b72565b5b6000611bf884828501611bbf565b91505092915050565b60008115159050919050565b611c1681611c01565b82525050565b6000602082019050611c316000830184611c0d565b92915050565b600081519050919050565b600082825260208201905092915050565b60005b83811015611c71578082015181840152602081019050611c56565b83811115611c80576000848401525b50505050565b6000601f19601f8301169050919050565b6000611ca282611c37565b611cac8185611c42565b9350611cbc818560208601611c53565b611cc581611c86565b840191505092915050565b60006020820190508181036000830152611cea8184611c97565b905092915050565b6000819050919050565b611d0581611cf2565b8114611d1057600080fd5b50565b600081359050611d2281611cfc565b92915050565b600060208284031215611d3e57611d3d611b72565b5b6000611d4c84828501611d13565b91505092915050565b600073ffffffffffffffffffffffffffffffffffffffff82169050919050565b6000611d8082611d55565b9050919050565b611d9081611d75565b82525050565b6000602082019050611dab6000830184611d87565b92915050565b611dba81611d75565b8114611dc557600080fd5b50565b600081359050611dd781611db1565b92915050565b60008060408385031215611df457611df3611b72565b5b6000611e0285828601611dc8565b9250506020611e1385828601611d13565b9150509250929050565b600080600060608486031215611e3657611e35611b72565b5b6000611e4486828701611dc8565b9350506020611e5586828701611dc8565b9250506040611e6686828701611d13565b9150509250925092565b611e7981611cf2565b82525050565b6000602082019050611e946000830184611e70565b92915050565b600060208284031215611eb057611eaf611b72565b5b6000611ebe84828501611dc8565b91505092915050565b611ed081611c01565b8114611edb57600080fd5b50565b600081359050611eed81611ec7565b92915050565b60008060408385031215611f0a57611f09611b72565b5b6000611f1885828601611dc8565b9250506020611f2985828601611ede565b9150509250929050565b600080fd5b600080fd5b7f4e487b7100000000000000000000000000000000000000000000000000000000600052604160045260246000fd5b611f7582611c86565b810181811067ffffffffffffffff82111715611f9457611f93611f3d565b5b80604052505050565b6000611fa7611b68565b9050611fb38282611f6c565b919050565b600067ffffffffffffffff821115611fd357611fd2611f3d565b5b611fdc82611c86565b9050602081019050919050565b82818337600083830152505050565b600061200b61200684611fb8565b611f9d565b90508281526020810184848401111561202757612026611f38565b5b612032848285611fe9565b509392505050565b600082601f83011261204f5761204e611f33565b5b813561205f848260208601611ff8565b91505092915050565b6000806000806080858703121561208257612081611b72565b5b600061209087828801611dc8565b94505060206120a187828801611dc8565b93505060406120b287828801611d13565b925050606085013567ffffffffffffffff8111156120d3576120d2611b77565b5b6120df8782880161203a565b91505092959194509250565b600067ffffffffffffffff82111561210657612105611f3d565b5b61210f82611c86565b9050602081019050919050565b600061212f61212a846120eb565b611f9d565b90508281526020810184848401111561214b5761214a611f38565b5b612156848285611fe9565b509392505050565b600082601f83011261217357612172611f33565b5b813561218384826020860161211c565b91505092915050565b6000602082840312156121a2576121a1611b72565b5b600082013567ffffffffffffffff8111156121c0576121bf611b77565b5b6121cc8482850161215e565b91505092915050565b600080604083850312156121ec576121eb611b72565b5b60006121fa85828601611dc8565b925050602061220b85828601611dc8565b9150509250929050565b7f4e487b7100000000000000000000000000000000000000000000000000000000600052602260045260246000fd5b6000600282049050600182168061225c57607f821691505b602082108114156122705761226f612215565b5b50919050565b7f4552433732313a20617070726f76656420717565727920666f72206e6f6e657860008201527f697374656e7420746f6b656e0000000000000000000000000000000000000000602082015250565b60006122d2602c83611c42565b91506122dd82612276565b604082019050919050565b60006020820190508181036000830152612301816122c5565b9050919050565b7f4552433732313a20617070726f76616c20746f2063757272656e74206f776e6560008201527f7200000000000000000000000000000000000000000000000000000000000000602082015250565b6000612364602183611c42565b915061236f82612308565b604082019050919050565b6000602082019050818103600083015261239381612357565b9050919050565b7f4552433732313a20617070726f76652063616c6c6572206973206e6f74206f7760008201527f6e6572206e6f7220617070726f76656420666f7220616c6c0000000000000000602082015250565b60006123f6603883611c42565b91506124018261239a565b604082019050919050565b60006020820190508181036000830152612425816123e9565b9050919050565b7f4552433732313a207472616e736665722063616c6c6572206973206e6f74206f60008201527f776e6572206e6f7220617070726f766564000000000000000000000000000000602082015250565b6000612488603183611c42565b91506124938261242c565b604082019050919050565b600060208201905081810360008301526124b78161247b565b9050919050565b7f7065726d697373696f6e2064656e696564000000000000000000000000000000600082015250565b60006124f4601183611c42565b91506124ff826124be565b602082019050919050565b60006020820190508181036000830152612523816124e7565b9050919050565b7f4552433732313a206f776e657220717565727920666f72206e6f6e657869737460008201527f656e7420746f6b656e0000000000000000000000000000000000000000000000602082015250565b6000612586602983611c42565b91506125918261252a565b604082019050919050565b600060208201905081810360008301526125b581612579565b9050919050565b7f4552433732313a2062616c616e636520717565727920666f7220746865207a6560008201527f726f206164647265737300000000000000000000000000000000000000000000602082015250565b6000612618602a83611c42565b9150612623826125bc565b604082019050919050565b600060208201905081810360008301526126478161260b565b9050919050565b7f45524337323155524953746f726167653a2055524920717565727920666f722060008201527f6e6f6e6578697374656e7420746f6b656e000000000000000000000000000000602082015250565b60006126aa603183611c42565b91506126b58261264e565b604082019050919050565b600060208201905081810360008301526126d98161269d565b9050919050565b600081905092915050565b60006126f682611c37565b61270081856126e0565b9350612710818560208601611c53565b80840191505092915050565b600061272882856126eb565b915061273482846126eb565b91508190509392505050565b7f4e487b7100000000000000000000000000000000000000000000000000000000600052601160045260246000fd5b600061277a82611cf2565b91507fffffffffffffffffffffffffffffffffffffffffffffffffffffffffffffffff8214156127ad576127ac612740565b5b600182019050919050565b7f4552433732313a206f70657261746f7220717565727920666f72206e6f6e657860008201527f697374656e7420746f6b656e0000000000000000000000000000000000000000602082015250565b6000612814602c83611c42565b915061281f826127b8565b604082019050919050565b6000602082019050818103600083015261284381612807565b9050919050565b7f4552433732313a207472616e736665722066726f6d20696e636f72726563742060008201527f6f776e6572000000000000000000000000000000000000000000000000000000602082015250565b60006128a6602583611c42565b91506128b18261284a565b604082019050919050565b600060208201905081810360008301526128d581612899565b9050919050565b7f4552433732313a207472616e7366657220746f20746865207a65726f2061646460008201527f7265737300000000000000000000000000000000000000000000000000000000602082015250565b6000612938602483611c42565b9150612943826128dc565b604082019050919050565b600060208201905081810360008301526129678161292b565b9050919050565b600061297982611cf2565b915061298483611cf2565b92508282101561299757612996612740565b5b828203905092915050565b60006129ad82611cf2565b91506129b883611cf2565b9250827fffffffffffffffffffffffffffffffffffffffffffffffffffffffffffffffff038211156129ed576129ec612740565b5b828201905092915050565b7f4552433732313a20617070726f766520746f2063616c6c657200000000000000600082015250565b6000612a2e601983611c42565b9150612a39826129f8565b602082019050919050565b60006020820190508181036000830152612a5d81612a21565b9050919050565b7f4552433732313a207472616e7366657220746f206e6f6e20455243373231526560008201527f63656976657220696d706c656d656e7465720000000000000000000000000000602082015250565b6000612ac0603283611c42565b9150612acb82612a64565b604082019050919050565b60006020820190508181036000830152612aef81612ab3565b9050919050565b7f4552433732314d657461646174613a2055524920717565727920666f72206e6f60008201527f6e6578697374656e7420746f6b656e0000000000000000000000000000000000602082015250565b6000612b52602f83611c42565b9150612b5d82612af6565b604082019050919050565b60006020820190508181036000830152612b8181612b45565b9050919050565b7f45524337323155524953746f726167653a2055524920736574206f66206e6f6e60008201527f6578697374656e7420746f6b656e000000000000000000000000000000000000602082015250565b6000612be4602e83611c42565b9150612bef82612b88565b604082019050919050565b60006020820190508181036000830152612c1381612bd7565b9050919050565b600081519050919050565b600082825260208201905092915050565b6000612c4182612c1a565b612c4b8185612c25565b9350612c5b818560208601611c53565b612c6481611c86565b840191505092915050565b6000608082019050612c846000830187611d87565b612c916020830186611d87565b612c9e6040830185611e70565b8181036060830152612cb08184612c36565b905095945050505050565b600081519050612cca81611ba8565b92915050565b600060208284031215612ce657612ce5611b72565b5b6000612cf484828501612cbb565b91505092915050565b7f4e487b7100000000000000000000000000000000000000000000000000000000600052601260045260246000fd5b6000612d3782611cf2565b9150612d4283611cf2565b925082612d5257612d51612cfd565b5b828204905092915050565b6000612d6882611cf2565b9150612d7383611cf2565b925082612d8357612d82612cfd565b5b828206905092915050565b7f4e487b7100000000000000000000000000000000000000000000000000000000600052603260045260246000fd5b7f4552433732313a206d696e7420746f20746865207a65726f2061646472657373600082015250565b6000612df3602083611c42565b9150612dfe82612dbd565b602082019050919050565b60006020820190508181036000830152612e2281612de6565b9050919050565b7f4552433732313a20746f6b656e20616c7265616479206d696e74656400000000600082015250565b6000612e5f601c83611c42565b9150612e6a82612e29565b602082019050919050565b60006020820190508181036000830152612e8e81612e52565b905091905056fea264697066735822122054cb48e524b9e249a1691e7117032c936573e301cf31e01f9b44b23abf04fb1464736f6c634300080c0033",
  "immutableReferences": {},
  "source": "// SPDX-License-Identifier: MIT\r\npragma solidity >=0.4.22 <0.9.0;\r\n\r\nimport \"@openzeppelin/contracts/token/ERC721/extensions/ERC721URIStorage.sol\";\r\n\r\n// ~ERC721URIStorage\r\ncontract Custom_NFT is ERC721URIStorage {\r\n    uint public counter;\r\n    constructor() ERC721(\"Custom_NFT\", \"CNFT\"){}\r\n    function createNFT (string memory tokenURI) public returns (uint tokenId) {\r\n        tokenId = counter;\r\n        _safeMint(msg.sender, tokenId);\r\n        _setTokenURI(tokenId, tokenURI);\r\n        counter ++;\r\n    }\r\n\r\n    function burnNFT(uint256 tokenId) public virtual {\r\n        require(_isApprovedOrOwner(msg.sender, tokenId), \"permission denied\");\r\n        _burn(tokenId);\r\n    }   \r\n}",
  "sourcePath": "D:\\leetCode\\VScode\\NCTU_2022\\Blockchain Priciples and Applications\\hw3_erc721\\contracts\\Custom_NFT.sol",
  "compiler": {
    "name": "solc",
    "version": "0.8.12+commit.f00d7308.Emscripten.clang"
  },
  "schemaVersion": "3.4.5",
  "updatedAt": "2022-04-14T15:32:46.159Z",
  "devdoc": {
    "kind": "dev",
    "methods": {
      "approve(address,uint256)": {
        "details": "See {IERC721-approve}."
      },
      "balanceOf(address)": {
        "details": "See {IERC721-balanceOf}."
      },
      "getApproved(uint256)": {
        "details": "See {IERC721-getApproved}."
      },
      "isApprovedForAll(address,address)": {
        "details": "See {IERC721-isApprovedForAll}."
      },
      "name()": {
        "details": "See {IERC721Metadata-name}."
      },
      "ownerOf(uint256)": {
        "details": "See {IERC721-ownerOf}."
      },
      "safeTransferFrom(address,address,uint256)": {
        "details": "See {IERC721-safeTransferFrom}."
      },
      "safeTransferFrom(address,address,uint256,bytes)": {
        "details": "See {IERC721-safeTransferFrom}."
      },
      "setApprovalForAll(address,bool)": {
        "details": "See {IERC721-setApprovalForAll}."
      },
      "supportsInterface(bytes4)": {
        "details": "See {IERC165-supportsInterface}."
      },
      "symbol()": {
        "details": "See {IERC721Metadata-symbol}."
      },
      "tokenURI(uint256)": {
        "details": "See {IERC721Metadata-tokenURI}."
      },
      "transferFrom(address,address,uint256)": {
        "details": "See {IERC721-transferFrom}."
      }
    },
    "version": 1
  },
  "userdoc": {
    "kind": "user",
    "methods": {},
    "version": 1
  }
}