{
  "contractName": "LAN_NFT",
  "abi": [
    {
      "inputs": [],
      "stateMutability": "nonpayable",
      "type": "constructor"
    },
    {
      "anonymous": false,
      "inputs": [
        {
          "indexed": true,
          "internalType": "address",
          "name": "owner",
          "type": "address"
        },
        {
          "indexed": true,
          "internalType": "address",
          "name": "approved",
          "type": "address"
        },
        {
          "indexed": true,
          "internalType": "uint256",
          "name": "tokenId",
          "type": "uint256"
        }
      ],
      "name": "Approval",
      "type": "event"
    },
    {
      "anonymous": false,
      "inputs": [
        {
          "indexed": true,
          "internalType": "address",
          "name": "owner",
          "type": "address"
        },
        {
          "indexed": true,
          "internalType": "address",
          "name": "operator",
          "type": "address"
        },
        {
          "indexed": false,
          "internalType": "bool",
          "name": "approved",
          "type": "bool"
        }
      ],
      "name": "ApprovalForAll",
      "type": "event"
    },
    {
      "anonymous": false,
      "inputs": [
        {
          "indexed": true,
          "internalType": "uint256",
          "name": "tokenId",
          "type": "uint256"
        },
        {
          "indexed": false,
          "internalType": "string",
          "name": "tokenURI",
          "type": "string"
        }
      ],
      "name": "CreatedNFT",
      "type": "event"
    },
    {
      "anonymous": false,
      "inputs": [
        {
          "indexed": true,
          "internalType": "address",
          "name": "from",
          "type": "address"
        },
        {
          "indexed": true,
          "internalType": "address",
          "name": "to",
          "type": "address"
        },
        {
          "indexed": true,
          "internalType": "uint256",
          "name": "tokenId",
          "type": "uint256"
        }
      ],
      "name": "Transfer",
      "type": "event"
    },
    {
      "inputs": [
        {
          "internalType": "address",
          "name": "to",
          "type": "address"
        },
        {
          "internalType": "uint256",
          "name": "tokenId",
          "type": "uint256"
        }
      ],
      "name": "approve",
      "outputs": [],
      "stateMutability": "nonpayable",
      "type": "function"
    },
    {
      "inputs": [
        {
          "internalType": "address",
          "name": "owner",
          "type": "address"
        }
      ],
      "name": "balanceOf",
      "outputs": [
        {
          "internalType": "uint256",
          "name": "",
          "type": "uint256"
        }
      ],
      "stateMutability": "view",
      "type": "function"
    },
    {
      "inputs": [
        {
          "internalType": "uint256",
          "name": "tokenId",
          "type": "uint256"
        }
      ],
      "name": "getApproved",
      "outputs": [
        {
          "internalType": "address",
          "name": "",
          "type": "address"
        }
      ],
      "stateMutability": "view",
      "type": "function"
    },
    {
      "inputs": [
        {
          "internalType": "address",
          "name": "owner",
          "type": "address"
        },
        {
          "internalType": "address",
          "name": "operator",
          "type": "address"
        }
      ],
      "name": "isApprovedForAll",
      "outputs": [
        {
          "internalType": "bool",
          "name": "",
          "type": "bool"
        }
      ],
      "stateMutability": "view",
      "type": "function"
    },
    {
      "inputs": [],
      "name": "name",
      "outputs": [
        {
          "internalType": "string",
          "name": "",
          "type": "string"
        }
      ],
      "stateMutability": "view",
      "type": "function"
    },
    {
      "inputs": [
        {
          "internalType": "uint256",
          "name": "tokenId",
          "type": "uint256"
        }
      ],
      "name": "ownerOf",
      "outputs": [
        {
          "internalType": "address",
          "name": "",
          "type": "address"
        }
      ],
      "stateMutability": "view",
      "type": "function"
    },
    {
      "inputs": [
        {
          "internalType": "address",
          "name": "from",
          "type": "address"
        },
        {
          "internalType": "address",
          "name": "to",
          "type": "address"
        },
        {
          "internalType": "uint256",
          "name": "tokenId",
          "type": "uint256"
        }
      ],
      "name": "safeTransferFrom",
      "outputs": [],
      "stateMutability": "nonpayable",
      "type": "function"
    },
    {
      "inputs": [
        {
          "internalType": "address",
          "name": "from",
          "type": "address"
        },
        {
          "internalType": "address",
          "name": "to",
          "type": "address"
        },
        {
          "internalType": "uint256",
          "name": "tokenId",
          "type": "uint256"
        },
        {
          "internalType": "bytes",
          "name": "_data",
          "type": "bytes"
        }
      ],
      "name": "safeTransferFrom",
      "outputs": [],
      "stateMutability": "nonpayable",
      "type": "function"
    },
    {
      "inputs": [
        {
          "internalType": "address",
          "name": "operator",
          "type": "address"
        },
        {
          "internalType": "bool",
          "name": "approved",
          "type": "bool"
        }
      ],
      "name": "setApprovalForAll",
      "outputs": [],
      "stateMutability": "nonpayable",
      "type": "function"
    },
    {
      "inputs": [
        {
          "internalType": "bytes4",
          "name": "interfaceId",
          "type": "bytes4"
        }
      ],
      "name": "supportsInterface",
      "outputs": [
        {
          "internalType": "bool",
          "name": "",
          "type": "bool"
        }
      ],
      "stateMutability": "view",
      "type": "function"
    },
    {
      "inputs": [],
      "name": "symbol",
      "outputs": [
        {
          "internalType": "string",
          "name": "",
          "type": "string"
        }
      ],
      "stateMutability": "view",
      "type": "function"
    },
    {
      "inputs": [
        {
          "internalType": "uint256",
          "name": "tokenId",
          "type": "uint256"
        }
      ],
      "name": "tokenURI",
      "outputs": [
        {
          "internalType": "string",
          "name": "",
          "type": "string"
        }
      ],
      "stateMutability": "view",
      "type": "function"
    },
    {
      "inputs": [
        {
          "internalType": "address",
          "name": "from",
          "type": "address"
        },
        {
          "internalType": "address",
          "name": "to",
          "type": "address"
        },
        {
          "internalType": "uint256",
          "name": "tokenId",
          "type": "uint256"
        }
      ],
      "name": "transferFrom",
      "outputs": [],
      "stateMutability": "nonpayable",
      "type": "function"
    },
    {
      "inputs": [
        {
          "internalType": "string",
          "name": "_tokenURI",
          "type": "string"
        }
      ],
      "name": "mint",
      "outputs": [
        {
          "internalType": "uint256",
          "name": "tokenId",
          "type": "uint256"
        }
      ],
      "stateMutability": "nonpayable",
      "type": "function"
    },
    {
      "inputs": [
        {
          "internalType": "uint256",
          "name": "tokenId",
          "type": "uint256"
        }
      ],
      "name": "burn",
      "outputs": [],
      "stateMutability": "nonpayable",
      "type": "function"
    }
  ],
  "bytecode": "0x60806040523480156200001157600080fd5b506040518060400160405280600781526020017f4c414e5f4e4654000000000000000000000000000000000000000000000000008152506040518060400160405280600781526020017f4c414e5f4e465400000000000000000000000000000000000000000000000000815250816000908051906020019062000096929190620000b8565b508060019080519060200190620000af929190620000b8565b505050620001cd565b828054620000c69062000197565b90600052602060002090601f016020900481019282620000ea576000855562000136565b82601f106200010557805160ff191683800117855562000136565b8280016001018555821562000136579182015b828111156200013557825182559160200191906001019062000118565b5b50905062000145919062000149565b5090565b5b80821115620001645760008160009055506001016200014a565b5090565b7f4e487b7100000000000000000000000000000000000000000000000000000000600052602260045260246000fd5b60006002820490506001821680620001b057607f821691505b60208210811415620001c757620001c662000168565b5b50919050565b612f1e80620001dd6000396000f3fe608060405234801561001057600080fd5b50600436106100f55760003560e01c80636352211e11610097578063b88d4fde11610066578063b88d4fde14610282578063c87b56dd1461029e578063d85d3d27146102ce578063e985e9c5146102fe576100f5565b80636352211e146101e857806370a082311461021857806395d89b4114610248578063a22cb46514610266576100f5565b8063095ea7b3116100d3578063095ea7b31461017857806323b872dd1461019457806342842e0e146101b057806342966c68146101cc576100f5565b806301ffc9a7146100fa57806306fdde031461012a578063081812fc14610148575b600080fd5b610114600480360381019061010f9190611c01565b61032e565b6040516101219190611c49565b60405180910390f35b610132610410565b60405161013f9190611cfd565b60405180910390f35b610162600480360381019061015d9190611d55565b6104a2565b60405161016f9190611dc3565b60405180910390f35b610192600480360381019061018d9190611e0a565b610527565b005b6101ae60048036038101906101a99190611e4a565b61063f565b005b6101ca60048036038101906101c59190611e4a565b61069f565b005b6101e660048036038101906101e19190611d55565b6106bf565b005b61020260048036038101906101fd9190611d55565b61071b565b60405161020f9190611dc3565b60405180910390f35b610232600480360381019061022d9190611e9d565b6107cd565b60405161023f9190611ed9565b60405180910390f35b610250610885565b60405161025d9190611cfd565b60405180910390f35b610280600480360381019061027b9190611f20565b610917565b005b61029c60048036038101906102979190612095565b61092d565b005b6102b860048036038101906102b39190611d55565b61098f565b6040516102c59190611cfd565b60405180910390f35b6102e860048036038101906102e391906121b9565b610ae1565b6040516102f59190611ed9565b60405180910390f35b61031860048036038101906103139190612202565b610b4a565b6040516103259190611c49565b60405180910390f35b60007f80ac58cd000000000000000000000000000000000000000000000000000000007bffffffffffffffffffffffffffffffffffffffffffffffffffffffff1916827bffffffffffffffffffffffffffffffffffffffffffffffffffffffff191614806103f957507f5b5e139f000000000000000000000000000000000000000000000000000000007bffffffffffffffffffffffffffffffffffffffffffffffffffffffff1916827bffffffffffffffffffffffffffffffffffffffffffffffffffffffff1916145b80610409575061040882610bde565b5b9050919050565b60606000805461041f90612271565b80601f016020809104026020016040519081016040528092919081815260200182805461044b90612271565b80156104985780601f1061046d57610100808354040283529160200191610498565b820191906000526020600020905b81548152906001019060200180831161047b57829003601f168201915b5050505050905090565b60006104ad82610c48565b6104ec576040517f08c379a00000000000000000000000000000000000000000000000000000000081526004016104e390612315565b60405180910390fd5b6004600083815260200190815260200160002060009054906101000a900473ffffffffffffffffffffffffffffffffffffffff169050919050565b60006105328261071b565b90508073ffffffffffffffffffffffffffffffffffffffff168373ffffffffffffffffffffffffffffffffffffffff1614156105a3576040517f08c379a000000000000000000000000000000000000000000000000000000000815260040161059a906123a7565b60405180910390fd5b8073ffffffffffffffffffffffffffffffffffffffff166105c2610cb4565b73ffffffffffffffffffffffffffffffffffffffff1614806105f157506105f0816105eb610cb4565b610b4a565b5b610630576040517f08c379a000000000000000000000000000000000000000000000000000000000815260040161062790612439565b60405180910390fd5b61063a8383610cbc565b505050565b61065061064a610cb4565b82610d75565b61068f576040517f08c379a0000000000000000000000000000000000000000000000000000000008152600401610686906124cb565b60405180910390fd5b61069a838383610e53565b505050565b6106ba8383836040518060200160405280600081525061092d565b505050565b6106d06106ca610cb4565b82610d75565b61070f576040517f08c379a00000000000000000000000000000000000000000000000000000000081526004016107069061255d565b60405180910390fd5b610718816110ba565b50565b6000806002600084815260200190815260200160002060009054906101000a900473ffffffffffffffffffffffffffffffffffffffff169050600073ffffffffffffffffffffffffffffffffffffffff168173ffffffffffffffffffffffffffffffffffffffff1614156107c4576040517f08c379a00000000000000000000000000000000000000000000000000000000081526004016107bb906125ef565b60405180910390fd5b80915050919050565b60008073ffffffffffffffffffffffffffffffffffffffff168273ffffffffffffffffffffffffffffffffffffffff16141561083e576040517f08c379a000000000000000000000000000000000000000000000000000000000815260040161083590612681565b60405180910390fd5b600360008373ffffffffffffffffffffffffffffffffffffffff1673ffffffffffffffffffffffffffffffffffffffff168152602001908152602001600020549050919050565b60606001805461089490612271565b80601f01602080910402602001604051908101604052809291908181526020018280546108c090612271565b801561090d5780601f106108e25761010080835404028352916020019161090d565b820191906000526020600020905b8154815290600101906020018083116108f057829003601f168201915b5050505050905090565b610929610922610cb4565b838361110d565b5050565b61093e610938610cb4565b83610d75565b61097d576040517f08c379a0000000000000000000000000000000000000000000000000000000008152600401610974906124cb565b60405180910390fd5b6109898484848461127a565b50505050565b606061099a82610c48565b6109d9576040517f08c379a00000000000000000000000000000000000000000000000000000000081526004016109d090612713565b60405180910390fd5b60006006600084815260200190815260200160002080546109f990612271565b80601f0160208091040260200160405190810160405280929190818152602001828054610a2590612271565b8015610a725780601f10610a4757610100808354040283529160200191610a72565b820191906000526020600020905b815481529060010190602001808311610a5557829003601f168201915b505050505090506000610a836112d6565b9050600081511415610a99578192505050610adc565b600082511115610ace578082604051602001610ab692919061276f565b60405160208183030381529060405292505050610adc565b610ad7846112ed565b925050505b919050565b6000610aed6007611394565b9050610af933826113a2565b610b0381836113c0565b807fb5a8d8cf5d01b5006e471421ba7da032446e2a82412342ed548b7aeed0ea9b6983604051610b339190611cfd565b60405180910390a2610b456007611434565b919050565b6000600560008473ffffffffffffffffffffffffffffffffffffffff1673ffffffffffffffffffffffffffffffffffffffff16815260200190815260200160002060008373ffffffffffffffffffffffffffffffffffffffff1673ffffffffffffffffffffffffffffffffffffffff16815260200190815260200160002060009054906101000a900460ff16905092915050565b60007f01ffc9a7000000000000000000000000000000000000000000000000000000007bffffffffffffffffffffffffffffffffffffffffffffffffffffffff1916827bffffffffffffffffffffffffffffffffffffffffffffffffffffffff1916149050919050565b60008073ffffffffffffffffffffffffffffffffffffffff166002600084815260200190815260200160002060009054906101000a900473ffffffffffffffffffffffffffffffffffffffff1673ffffffffffffffffffffffffffffffffffffffff1614159050919050565b600033905090565b816004600083815260200190815260200160002060006101000a81548173ffffffffffffffffffffffffffffffffffffffff021916908373ffffffffffffffffffffffffffffffffffffffff160217905550808273ffffffffffffffffffffffffffffffffffffffff16610d2f8361071b565b73ffffffffffffffffffffffffffffffffffffffff167f8c5be1e5ebec7d5bd14f71427d1e84f3dd0314c0f7b2291e5b200ac8c7c3b92560405160405180910390a45050565b6000610d8082610c48565b610dbf576040517f08c379a0000000000000000000000000000000000000000000000000000000008152600401610db690612805565b60405180910390fd5b6000610dca8361071b565b90508073ffffffffffffffffffffffffffffffffffffffff168473ffffffffffffffffffffffffffffffffffffffff161480610e3957508373ffffffffffffffffffffffffffffffffffffffff16610e21846104a2565b73ffffffffffffffffffffffffffffffffffffffff16145b80610e4a5750610e498185610b4a565b5b91505092915050565b8273ffffffffffffffffffffffffffffffffffffffff16610e738261071b565b73ffffffffffffffffffffffffffffffffffffffff1614610ec9576040517f08c379a0000000000000000000000000000000000000000000000000000000008152600401610ec090612897565b60405180910390fd5b600073ffffffffffffffffffffffffffffffffffffffff168273ffffffffffffffffffffffffffffffffffffffff161415610f39576040517f08c379a0000000000000000000000000000000000000000000000000000000008152600401610f3090612929565b60405180910390fd5b610f4483838361144a565b610f4f600082610cbc565b6001600360008573ffffffffffffffffffffffffffffffffffffffff1673ffffffffffffffffffffffffffffffffffffffff1681526020019081526020016000206000828254610f9f9190612978565b925050819055506001600360008473ffffffffffffffffffffffffffffffffffffffff1673ffffffffffffffffffffffffffffffffffffffff1681526020019081526020016000206000828254610ff691906129ac565b92505081905550816002600083815260200190815260200160002060006101000a81548173ffffffffffffffffffffffffffffffffffffffff021916908373ffffffffffffffffffffffffffffffffffffffff160217905550808273ffffffffffffffffffffffffffffffffffffffff168473ffffffffffffffffffffffffffffffffffffffff167fddf252ad1be2c89b69c2b068fc378daa952ba7f163c4a11628f55a4df523b3ef60405160405180910390a46110b583838361144f565b505050565b6110c381611454565b60006006600083815260200190815260200160002080546110e390612271565b90501461110a576006600082815260200190815260200160002060006111099190611ab2565b5b50565b8173ffffffffffffffffffffffffffffffffffffffff168373ffffffffffffffffffffffffffffffffffffffff16141561117c576040517f08c379a000000000000000000000000000000000000000000000000000000000815260040161117390612a4e565b60405180910390fd5b80600560008573ffffffffffffffffffffffffffffffffffffffff1673ffffffffffffffffffffffffffffffffffffffff16815260200190815260200160002060008473ffffffffffffffffffffffffffffffffffffffff1673ffffffffffffffffffffffffffffffffffffffff16815260200190815260200160002060006101000a81548160ff0219169083151502179055508173ffffffffffffffffffffffffffffffffffffffff168373ffffffffffffffffffffffffffffffffffffffff167f17307eab39ab6107e8899845ad3d59bd9653f200f220920489ca2b5937696c318360405161126d9190611c49565b60405180910390a3505050565b611285848484610e53565b61129184848484611571565b6112d0576040517f08c379a00000000000000000000000000000000000000000000000000000000081526004016112c790612ae0565b60405180910390fd5b50505050565b606060405180602001604052806000815250905090565b60606112f882610c48565b611337576040517f08c379a000000000000000000000000000000000000000000000000000000000815260040161132e90612b72565b60405180910390fd5b60006113416112d6565b90506000815111611361576040518060200160405280600081525061138c565b8061136b846116f9565b60405160200161137c92919061276f565b6040516020818303038152906040525b915050919050565b600081600001549050919050565b6113bc82826040518060200160405280600081525061185a565b5050565b6113c982610c48565b611408576040517f08c379a00000000000000000000000000000000000000000000000000000000081526004016113ff90612c04565b60405180910390fd5b8060066000848152602001908152602001600020908051906020019061142f929190611af2565b505050565b6001816000016000828254019250508190555050565b505050565b505050565b600061145f8261071b565b905061146d8160008461144a565b611478600083610cbc565b6001600360008373ffffffffffffffffffffffffffffffffffffffff1673ffffffffffffffffffffffffffffffffffffffff16815260200190815260200160002060008282546114c89190612978565b925050819055506002600083815260200190815260200160002060006101000a81549073ffffffffffffffffffffffffffffffffffffffff021916905581600073ffffffffffffffffffffffffffffffffffffffff168273ffffffffffffffffffffffffffffffffffffffff167fddf252ad1be2c89b69c2b068fc378daa952ba7f163c4a11628f55a4df523b3ef60405160405180910390a461156d8160008461144f565b5050565b60006115928473ffffffffffffffffffffffffffffffffffffffff166118b5565b156116ec578373ffffffffffffffffffffffffffffffffffffffff1663150b7a026115bb610cb4565b8786866040518563ffffffff1660e01b81526004016115dd9493929190612c79565b6020604051808303816000875af192505050801561161957506040513d601f19601f820116820180604052508101906116169190612cda565b60015b61169c573d8060008114611649576040519150601f19603f3d011682016040523d82523d6000602084013e61164e565b606091505b50600081511415611694576040517f08c379a000000000000000000000000000000000000000000000000000000000815260040161168b90612ae0565b60405180910390fd5b805181602001fd5b63150b7a0260e01b7bffffffffffffffffffffffffffffffffffffffffffffffffffffffff1916817bffffffffffffffffffffffffffffffffffffffffffffffffffffffff1916149150506116f1565b600190505b949350505050565b60606000821415611741576040518060400160405280600181526020017f30000000000000000000000000000000000000000000000000000000000000008152509050611855565b600082905060005b6000821461177357808061175c90612d07565b915050600a8261176c9190612d7f565b9150611749565b60008167ffffffffffffffff81111561178f5761178e611f6a565b5b6040519080825280601f01601f1916602001820160405280156117c15781602001600182028036833780820191505090505b5090505b6000851461184e576001826117da9190612978565b9150600a856117e99190612db0565b60306117f591906129ac565b60f81b81838151811061180b5761180a612de1565b5b60200101907effffffffffffffffffffffffffffffffffffffffffffffffffffffffffffff1916908160001a905350600a856118479190612d7f565b94506117c5565b8093505050505b919050565b61186483836118d8565b6118716000848484611571565b6118b0576040517f08c379a00000000000000000000000000000000000000000000000000000000081526004016118a790612ae0565b60405180910390fd5b505050565b6000808273ffffffffffffffffffffffffffffffffffffffff163b119050919050565b600073ffffffffffffffffffffffffffffffffffffffff168273ffffffffffffffffffffffffffffffffffffffff161415611948576040517f08c379a000000000000000000000000000000000000000000000000000000000815260040161193f90612e5c565b60405180910390fd5b61195181610c48565b15611991576040517f08c379a000000000000000000000000000000000000000000000000000000000815260040161198890612ec8565b60405180910390fd5b61199d6000838361144a565b6001600360008473ffffffffffffffffffffffffffffffffffffffff1673ffffffffffffffffffffffffffffffffffffffff16815260200190815260200160002060008282546119ed91906129ac565b92505081905550816002600083815260200190815260200160002060006101000a81548173ffffffffffffffffffffffffffffffffffffffff021916908373ffffffffffffffffffffffffffffffffffffffff160217905550808273ffffffffffffffffffffffffffffffffffffffff16600073ffffffffffffffffffffffffffffffffffffffff167fddf252ad1be2c89b69c2b068fc378daa952ba7f163c4a11628f55a4df523b3ef60405160405180910390a4611aae6000838361144f565b5050565b508054611abe90612271565b6000825580601f10611ad05750611aef565b601f016020900490600052602060002090810190611aee9190611b78565b5b50565b828054611afe90612271565b90600052602060002090601f016020900481019282611b205760008555611b67565b82601f10611b3957805160ff1916838001178555611b67565b82800160010185558215611b67579182015b82811115611b66578251825591602001919060010190611b4b565b5b509050611b749190611b78565b5090565b5b80821115611b91576000816000905550600101611b79565b5090565b6000604051905090565b600080fd5b600080fd5b60007fffffffff0000000000000000000000000000000000000000000000000000000082169050919050565b611bde81611ba9565b8114611be957600080fd5b50565b600081359050611bfb81611bd5565b92915050565b600060208284031215611c1757611c16611b9f565b5b6000611c2584828501611bec565b91505092915050565b60008115159050919050565b611c4381611c2e565b82525050565b6000602082019050611c5e6000830184611c3a565b92915050565b600081519050919050565b600082825260208201905092915050565b60005b83811015611c9e578082015181840152602081019050611c83565b83811115611cad576000848401525b50505050565b6000601f19601f8301169050919050565b6000611ccf82611c64565b611cd98185611c6f565b9350611ce9818560208601611c80565b611cf281611cb3565b840191505092915050565b60006020820190508181036000830152611d178184611cc4565b905092915050565b6000819050919050565b611d3281611d1f565b8114611d3d57600080fd5b50565b600081359050611d4f81611d29565b92915050565b600060208284031215611d6b57611d6a611b9f565b5b6000611d7984828501611d40565b91505092915050565b600073ffffffffffffffffffffffffffffffffffffffff82169050919050565b6000611dad82611d82565b9050919050565b611dbd81611da2565b82525050565b6000602082019050611dd86000830184611db4565b92915050565b611de781611da2565b8114611df257600080fd5b50565b600081359050611e0481611dde565b92915050565b60008060408385031215611e2157611e20611b9f565b5b6000611e2f85828601611df5565b9250506020611e4085828601611d40565b9150509250929050565b600080600060608486031215611e6357611e62611b9f565b5b6000611e7186828701611df5565b9350506020611e8286828701611df5565b9250506040611e9386828701611d40565b9150509250925092565b600060208284031215611eb357611eb2611b9f565b5b6000611ec184828501611df5565b91505092915050565b611ed381611d1f565b82525050565b6000602082019050611eee6000830184611eca565b92915050565b611efd81611c2e565b8114611f0857600080fd5b50565b600081359050611f1a81611ef4565b92915050565b60008060408385031215611f3757611f36611b9f565b5b6000611f4585828601611df5565b9250506020611f5685828601611f0b565b9150509250929050565b600080fd5b600080fd5b7f4e487b7100000000000000000000000000000000000000000000000000000000600052604160045260246000fd5b611fa282611cb3565b810181811067ffffffffffffffff82111715611fc157611fc0611f6a565b5b80604052505050565b6000611fd4611b95565b9050611fe08282611f99565b919050565b600067ffffffffffffffff82111561200057611fff611f6a565b5b61200982611cb3565b9050602081019050919050565b82818337600083830152505050565b600061203861203384611fe5565b611fca565b90508281526020810184848401111561205457612053611f65565b5b61205f848285612016565b509392505050565b600082601f83011261207c5761207b611f60565b5b813561208c848260208601612025565b91505092915050565b600080600080608085870312156120af576120ae611b9f565b5b60006120bd87828801611df5565b94505060206120ce87828801611df5565b93505060406120df87828801611d40565b925050606085013567ffffffffffffffff811115612100576120ff611ba4565b5b61210c87828801612067565b91505092959194509250565b600067ffffffffffffffff82111561213357612132611f6a565b5b61213c82611cb3565b9050602081019050919050565b600061215c61215784612118565b611fca565b90508281526020810184848401111561217857612177611f65565b5b612183848285612016565b509392505050565b600082601f8301126121a05761219f611f60565b5b81356121b0848260208601612149565b91505092915050565b6000602082840312156121cf576121ce611b9f565b5b600082013567ffffffffffffffff8111156121ed576121ec611ba4565b5b6121f98482850161218b565b91505092915050565b6000806040838503121561221957612218611b9f565b5b600061222785828601611df5565b925050602061223885828601611df5565b9150509250929050565b7f4e487b7100000000000000000000000000000000000000000000000000000000600052602260045260246000fd5b6000600282049050600182168061228957607f821691505b6020821081141561229d5761229c612242565b5b50919050565b7f4552433732313a20617070726f76656420717565727920666f72206e6f6e657860008201527f697374656e7420746f6b656e0000000000000000000000000000000000000000602082015250565b60006122ff602c83611c6f565b915061230a826122a3565b604082019050919050565b6000602082019050818103600083015261232e816122f2565b9050919050565b7f4552433732313a20617070726f76616c20746f2063757272656e74206f776e6560008201527f7200000000000000000000000000000000000000000000000000000000000000602082015250565b6000612391602183611c6f565b915061239c82612335565b604082019050919050565b600060208201905081810360008301526123c081612384565b9050919050565b7f4552433732313a20617070726f76652063616c6c6572206973206e6f74206f7760008201527f6e6572206e6f7220617070726f76656420666f7220616c6c0000000000000000602082015250565b6000612423603883611c6f565b915061242e826123c7565b604082019050919050565b6000602082019050818103600083015261245281612416565b9050919050565b7f4552433732313a207472616e736665722063616c6c6572206973206e6f74206f60008201527f776e6572206e6f7220617070726f766564000000000000000000000000000000602082015250565b60006124b5603183611c6f565b91506124c082612459565b604082019050919050565b600060208201905081810360008301526124e4816124a8565b9050919050565b7f4552433732314275726e61626c653a2063616c6c6572206973206e6f74206f7760008201527f6e6572206e6f7220617070726f76656400000000000000000000000000000000602082015250565b6000612547603083611c6f565b9150612552826124eb565b604082019050919050565b600060208201905081810360008301526125768161253a565b9050919050565b7f4552433732313a206f776e657220717565727920666f72206e6f6e657869737460008201527f656e7420746f6b656e0000000000000000000000000000000000000000000000602082015250565b60006125d9602983611c6f565b91506125e48261257d565b604082019050919050565b60006020820190508181036000830152612608816125cc565b9050919050565b7f4552433732313a2062616c616e636520717565727920666f7220746865207a6560008201527f726f206164647265737300000000000000000000000000000000000000000000602082015250565b600061266b602a83611c6f565b91506126768261260f565b604082019050919050565b6000602082019050818103600083015261269a8161265e565b9050919050565b7f45524337323155524953746f726167653a2055524920717565727920666f722060008201527f6e6f6e6578697374656e7420746f6b656e000000000000000000000000000000602082015250565b60006126fd603183611c6f565b9150612708826126a1565b604082019050919050565b6000602082019050818103600083015261272c816126f0565b9050919050565b600081905092915050565b600061274982611c64565b6127538185612733565b9350612763818560208601611c80565b80840191505092915050565b600061277b828561273e565b9150612787828461273e565b91508190509392505050565b7f4552433732313a206f70657261746f7220717565727920666f72206e6f6e657860008201527f697374656e7420746f6b656e0000000000000000000000000000000000000000602082015250565b60006127ef602c83611c6f565b91506127fa82612793565b604082019050919050565b6000602082019050818103600083015261281e816127e2565b9050919050565b7f4552433732313a207472616e736665722066726f6d20696e636f72726563742060008201527f6f776e6572000000000000000000000000000000000000000000000000000000602082015250565b6000612881602583611c6f565b915061288c82612825565b604082019050919050565b600060208201905081810360008301526128b081612874565b9050919050565b7f4552433732313a207472616e7366657220746f20746865207a65726f2061646460008201527f7265737300000000000000000000000000000000000000000000000000000000602082015250565b6000612913602483611c6f565b915061291e826128b7565b604082019050919050565b6000602082019050818103600083015261294281612906565b9050919050565b7f4e487b7100000000000000000000000000000000000000000000000000000000600052601160045260246000fd5b600061298382611d1f565b915061298e83611d1f565b9250828210156129a1576129a0612949565b5b828203905092915050565b60006129b782611d1f565b91506129c283611d1f565b9250827fffffffffffffffffffffffffffffffffffffffffffffffffffffffffffffffff038211156129f7576129f6612949565b5b828201905092915050565b7f4552433732313a20617070726f766520746f2063616c6c657200000000000000600082015250565b6000612a38601983611c6f565b9150612a4382612a02565b602082019050919050565b60006020820190508181036000830152612a6781612a2b565b9050919050565b7f4552433732313a207472616e7366657220746f206e6f6e20455243373231526560008201527f63656976657220696d706c656d656e7465720000000000000000000000000000602082015250565b6000612aca603283611c6f565b9150612ad582612a6e565b604082019050919050565b60006020820190508181036000830152612af981612abd565b9050919050565b7f4552433732314d657461646174613a2055524920717565727920666f72206e6f60008201527f6e6578697374656e7420746f6b656e0000000000000000000000000000000000602082015250565b6000612b5c602f83611c6f565b9150612b6782612b00565b604082019050919050565b60006020820190508181036000830152612b8b81612b4f565b9050919050565b7f45524337323155524953746f726167653a2055524920736574206f66206e6f6e60008201527f6578697374656e7420746f6b656e000000000000000000000000000000000000602082015250565b6000612bee602e83611c6f565b9150612bf982612b92565b604082019050919050565b60006020820190508181036000830152612c1d81612be1565b9050919050565b600081519050919050565b600082825260208201905092915050565b6000612c4b82612c24565b612c558185612c2f565b9350612c65818560208601611c80565b612c6e81611cb3565b840191505092915050565b6000608082019050612c8e6000830187611db4565b612c9b6020830186611db4565b612ca86040830185611eca565b8181036060830152612cba8184612c40565b905095945050505050565b600081519050612cd481611bd5565b92915050565b600060208284031215612cf057612cef611b9f565b5b6000612cfe84828501612cc5565b91505092915050565b6000612d1282611d1f565b91507fffffffffffffffffffffffffffffffffffffffffffffffffffffffffffffffff821415612d4557612d44612949565b5b600182019050919050565b7f4e487b7100000000000000000000000000000000000000000000000000000000600052601260045260246000fd5b6000612d8a82611d1f565b9150612d9583611d1f565b925082612da557612da4612d50565b5b828204905092915050565b6000612dbb82611d1f565b9150612dc683611d1f565b925082612dd657612dd5612d50565b5b828206905092915050565b7f4e487b7100000000000000000000000000000000000000000000000000000000600052603260045260246000fd5b7f4552433732313a206d696e7420746f20746865207a65726f2061646472657373600082015250565b6000612e46602083611c6f565b9150612e5182612e10565b602082019050919050565b60006020820190508181036000830152612e7581612e39565b9050919050565b7f4552433732313a20746f6b656e20616c7265616479206d696e74656400000000600082015250565b6000612eb2601c83611c6f565b9150612ebd82612e7c565b602082019050919050565b60006020820190508181036000830152612ee181612ea5565b905091905056fea264697066735822122039b3600a8371e3723473347f68a754cbc6c6299ca8140ccc0a4ce3f2aa47fd7b64736f6c634300080c0033",
  "immutableReferences": {},
  "source": "// SPDX-License-Identifier: MIT\r\npragma solidity >=0.4.22 <0.9.0;\r\n\r\nimport \"@openzeppelin/contracts/token/ERC721/extensions/ERC721URIStorage.sol\";\r\nimport \"@openzeppelin/contracts/utils/Counters.sol\";\r\n\r\n// ~ERC721URIStorage\r\ncontract LAN_NFT is ERC721URIStorage {\r\n    using Counters for Counters.Counter;\r\n    Counters.Counter private _tokenIds;\r\n    event CreatedNFT(uint256 indexed tokenId, string tokenURI);\r\n    \r\n    constructor() ERC721(\"LAN_NFT\", \"LAN_NFT\"){}\r\n    function mint (string memory _tokenURI) public returns (uint256 tokenId) {\r\n        tokenId = _tokenIds.current();\r\n        _safeMint(msg.sender, tokenId);\r\n        _setTokenURI(tokenId, _tokenURI);\r\n        emit CreatedNFT(tokenId, _tokenURI);\r\n        _tokenIds.increment();\r\n    }\r\n\r\n    function burn(uint256 tokenId) public virtual {\r\n        // solhint-disable-next-line max-line-length\r\n        require(_isApprovedOrOwner(_msgSender(), tokenId), \"ERC721Burnable: caller is not owner nor approved\");\r\n        _burn(tokenId);\r\n    }\r\n}",
  "sourcePath": "D:\\leetCode\\VScode\\NCTU_2022\\Blockchain Priciples and Applications\\hw3_erc721\\contracts\\LAN_NFT.sol",
  "compiler": {
    "name": "solc",
    "version": "0.8.12+commit.f00d7308.Emscripten.clang"
  },
  "schemaVersion": "3.4.5",
  "updatedAt": "2022-04-15T01:38:56.409Z",
  "devdoc": {
    "kind": "dev",
    "methods": {
      "approve(address,uint256)": {
        "details": "See {IERC721-approve}."
      },
      "balanceOf(address)": {
        "details": "See {IERC721-balanceOf}."
      },
      "getApproved(uint256)": {
        "details": "See {IERC721-getApproved}."
      },
      "isApprovedForAll(address,address)": {
        "details": "See {IERC721-isApprovedForAll}."
      },
      "name()": {
        "details": "See {IERC721Metadata-name}."
      },
      "ownerOf(uint256)": {
        "details": "See {IERC721-ownerOf}."
      },
      "safeTransferFrom(address,address,uint256)": {
        "details": "See {IERC721-safeTransferFrom}."
      },
      "safeTransferFrom(address,address,uint256,bytes)": {
        "details": "See {IERC721-safeTransferFrom}."
      },
      "setApprovalForAll(address,bool)": {
        "details": "See {IERC721-setApprovalForAll}."
      },
      "supportsInterface(bytes4)": {
        "details": "See {IERC165-supportsInterface}."
      },
      "symbol()": {
        "details": "See {IERC721Metadata-symbol}."
      },
      "tokenURI(uint256)": {
        "details": "See {IERC721Metadata-tokenURI}."
      },
      "transferFrom(address,address,uint256)": {
        "details": "See {IERC721-transferFrom}."
      }
    },
    "version": 1
  },
  "userdoc": {
    "kind": "user",
    "methods": {},
    "version": 1
  }
}