{
  "contractName": "Arithmetic",
  "abi": [
    {
      "inputs": [
        {
          "internalType": "int256",
          "name": "x",
          "type": "int256"
        },
        {
          "internalType": "int256",
          "name": "y",
          "type": "int256"
        }
      ],
      "name": "addition",
      "outputs": [
        {
          "internalType": "int256",
          "name": "",
          "type": "int256"
        }
      ],
      "stateMutability": "pure",
      "type": "function"
    },
    {
      "inputs": [
        {
          "internalType": "int256",
          "name": "x",
          "type": "int256"
        },
        {
          "internalType": "int256",
          "name": "y",
          "type": "int256"
        }
      ],
      "name": "subtraction",
      "outputs": [
        {
          "internalType": "int256",
          "name": "",
          "type": "int256"
        }
      ],
      "stateMutability": "pure",
      "type": "function"
    },
    {
      "inputs": [
        {
          "internalType": "int256",
          "name": "x",
          "type": "int256"
        },
        {
          "internalType": "int256",
          "name": "y",
          "type": "int256"
        }
      ],
      "name": "multiplication",
      "outputs": [
        {
          "internalType": "int256",
          "name": "",
          "type": "int256"
        }
      ],
      "stateMutability": "pure",
      "type": "function"
    },
    {
      "inputs": [
        {
          "internalType": "int256",
          "name": "x",
          "type": "int256"
        },
        {
          "internalType": "int256",
          "name": "y",
          "type": "int256"
        }
      ],
      "name": "division",
      "outputs": [
        {
          "internalType": "int256",
          "name": "",
          "type": "int256"
        }
      ],
      "stateMutability": "pure",
      "type": "function"
    }
  ],
  "bytecode": "0x608060405234801561001057600080fd5b5061054b806100206000396000f3fe608060405234801561001057600080fd5b506004361061004c5760003560e01c806309b7cdda146100515780633b904fd914610081578063609e076f146100b1578063c2d85baf146100e1575b600080fd5b61006b600480360381019061006691906101a4565b610111565b60405161007891906101f3565b60405180910390f35b61009b600480360381019061009691906101a4565b610127565b6040516100a891906101f3565b60405180910390f35b6100cb60048036038101906100c691906101a4565b61013d565b6040516100d891906101f3565b60405180910390f35b6100fb60048036038101906100f691906101a4565b610153565b60405161010891906101f3565b60405180910390f35b6000818361011f919061026c565b905092915050565b6000818361013591906102d6565b905092915050565b6000818361014b91906103ed565b905092915050565b600081836101619190610481565b905092915050565b600080fd5b6000819050919050565b6101818161016e565b811461018c57600080fd5b50565b60008135905061019e81610178565b92915050565b600080604083850312156101bb576101ba610169565b5b60006101c98582860161018f565b92505060206101da8582860161018f565b9150509250929050565b6101ed8161016e565b82525050565b600060208201905061020860008301846101e4565b92915050565b7f4e487b7100000000000000000000000000000000000000000000000000000000600052601260045260246000fd5b7f4e487b7100000000000000000000000000000000000000000000000000000000600052601160045260246000fd5b60006102778261016e565b91506102828361016e565b9250826102925761029161020e565b5b600160000383147f8000000000000000000000000000000000000000000000000000000000000000831416156102cb576102ca61023d565b5b828205905092915050565b60006102e18261016e565b91506102ec8361016e565b9250827f7fffffffffffffffffffffffffffffffffffffffffffffffffffffffffffffff048211600084136000841316161561032b5761032a61023d565b5b817f800000000000000000000000000000000000000000000000000000000000000005831260008412600084131616156103685761036761023d565b5b827f800000000000000000000000000000000000000000000000000000000000000005821260008413600084121616156103a5576103a461023d565b5b827f7fffffffffffffffffffffffffffffffffffffffffffffffffffffffffffffff05821260008412600084121616156103e2576103e161023d565b5b828202905092915050565b60006103f88261016e565b91506104038361016e565b9250827f80000000000000000000000000000000000000000000000000000000000000000182126000841215161561043e5761043d61023d565b5b827f7fffffffffffffffffffffffffffffffffffffffffffffffffffffffffffffff0182136000841216156104765761047561023d565b5b828203905092915050565b600061048c8261016e565b91506104978361016e565b9250817f7fffffffffffffffffffffffffffffffffffffffffffffffffffffffffffffff038313600083121516156104d2576104d161023d565b5b817f800000000000000000000000000000000000000000000000000000000000000003831260008312161561050a5761050961023d565b5b82820190509291505056fea2646970667358221220e4abce94bbe9171f474d865609a5af697ae959798b14bfa22d84c28059693a2364736f6c634300080c0033",
  "immutableReferences": {},
  "source": "// SPDX-License-Identifier: MIT\r\npragma solidity >=0.4.22 <0.9.0;\r\n \r\ncontract Arithmetic {\r\n    function addition(int x, int y) public pure returns(int){\r\n        return x + y;\r\n    }\r\n\r\n    function subtraction(int x, int y) public pure returns(int){\r\n        return x - y;\r\n    }\r\n\r\n    function multiplication(int x, int y) public pure returns(int){\r\n        return x * y;\r\n    }\r\n\r\n    function division(int x, int y) public pure returns(int){\r\n        return x / y;\r\n    }\r\n}",
  "sourcePath": "D:\\leetCode\\VScode\\NCTU_2022\\Blockchain Priciples and Applications\\hw1_smart_contract\\contracts\\Arithmetic.sol",
  "compiler": {
    "name": "solc",
    "version": "0.8.12+commit.f00d7308.Emscripten.clang"
  },
  "schemaVersion": "3.4.5",
  "updatedAt": "2022-03-06T14:57:02.489Z",
  "devdoc": {
    "kind": "dev",
    "methods": {},
    "version": 1
  },
  "userdoc": {
    "kind": "user",
    "methods": {},
    "version": 1
  }
}